:100000000C9445010C9476010C9476010C947601C5
:100010000C9476010C9476010C9476010C94760184
:100020000C9476010C9476010C9476010C94760174
:100030000C9476010C9476010C9476010C94760164
:100040000C9476010C9476010C9476010C94760154
:100050000C9476010C9476010C9476010C9459075B
:100060000C9476010C94CD070C94A3070C947601A4
:100070000C9476010C9476010C9476010C94760124
:100080000C9476010C9476010C9476010C94760114
:100090000C9476010C9476010C9476010C94760104
:1000A0000C9476010C9476010C9476010C947601F4
:1000B0000C9476010C9476010C9476010C947601E4
:1000C0000C9476010C9476010C9476010C947601D4
:1000D0000C9476010C9476010C9476010C947601C4
:1000E0000C9476010C94CE010C94DE010C94A402C5
:1000F0000C94CB010C94C3010C94A8010C94AD0199
:100100000C94B8020C9468020C94D4010C94FE0276
:100110000C94D8010C94F4010C94EC010C94BF01E4
:100120000C944B030C9495020C94E6010C94E201A0
:100130000C94C7010C94C6020C94FE010C94FA01B5
:100140000C9403080C94F001005EBCE2613FDD8377
:10015000C29C7E20A3FD1F41009D23BE46DB65F8A7
:100160008C11AF32CA57E97400000A0B02090C0D5A
:100170000E0807030401000000000000000000005A
:10018000000000000000000000000000000000006F
:10019000000000001211100000000000000000002C
:1001A000000000000000000000000000000000004F
:1001B0002200250028002B002E003100340002010F
:1001C0000000050108010B010000210024002700A8
:1001D0002A002D0030003300010100000401070156
:1001E0000A01000020002300260029002C002F0017
:1001F00032000001000003010601090105050505A3
:10020000070508080808020202020A0A080804048E
:1002100004040101010101010101030303030303BC
:100220000303040707070C0C0C0C0C0C0C0C02024B
:10023000020206060606060606060B0B0B0B0B0B48
:100240000B0B0102102020080810204010204080D5
:10025000020102010804020101020408102040808A
:100260008040201008040201800402018040201018
:100270000804020108040201010204081020408061
:100280000102040810204080030811241FBECFEF94
:10029000D1E2DEBFCDBF00E00CBF12E0A0E0B2E0D3
:1002A000E8E7FEE100E00BBF02C007900D92AA3B19
:1002B000B107D9F724E0AAEBB2E001C01D92AD303E
:1002C000B207E1F711E0C5E4D1E000E006C02197F4
:1002D0000109802FFE010E94E20CC434D10780E0A6
:1002E0000807A9F70E94B0080C943A0F0C9400007C
:1002F000282F30E0F901E859FE4F9491F901EE5BA7
:10030000FD4F449124503E4FF9012491222309F4DA
:1003100035C0992311F191509231F8F4E92FF0E0B2
:100320008827EA56FE4F8F4F0C94E20CC701CB0191
:10033000A801BF01C301AD01CE01D401D801DE0186
:10034000E201E601EC01F001AD01F401FA01FE0168
:10035000809180008F7780938000E22FF0E0EE0F95
:10036000FF1FE255FE4FA591B4918FB7F894EC9121
:10037000611148C040954E234C938FBF08958091E2
:1003800080008F7DE8CF80918000877FE4CF84B5A7
:100390008F7784BDE2CF84B58F7DFBCF8091B00095
:1003A0008F778093B000D9CF8091B0008F7DF9CF47
:1003B000809190008F7780939000CFCF80919000B4
:1003C0008F7DF9CF80919000877FF5CF8091A0003D
:1003D0008F778093A000C1CF8091A0008F7DF9CF4F
:1003E0008091A000877FF5CF809120018F77809347
:1003F0002001B3CF809120018F7DF9CF8091200122
:10040000877FF5CF4E2BB8CF3FB7F8948091470345
:1004100090914803A0914903B0914A0326B5A89B47
:1004200005C02F3F19F00196A11DB11D3FBFBA2F86
:10043000A92F982F8827BC01CD01620F711D811D46
:10044000911D42E0660F771F881F991F4A95D1F7CB
:1004500008958F929F92AF92BF92CF92DF92EF92C8
:10046000FF926B017C010E9404024B015C01C114EC
:10047000D104E104F104B9F00E9404026819790979
:100480008A099B09683E73408105910580F321E04C
:10049000C21AD108E108F10888EE880E83E0981EA0
:1004A000A11CB11CE4CFFF90EF90DF90CF90BF90E4
:1004B000AF909F908F9008952FB7F8946091430369
:1004C0007091440380914503909146032FBF089596
:1004D000AF92BF92CF92DF92EF92FF920F931F9352
:1004E000CF93DF936C017B018B01040F151FEB0190
:1004F0005E01AE18BF08C017D10759F06991D60147
:10050000ED91FC910190F081E02DC6011995892BA8
:1005100079F7C501DF91CF911F910F91FF90EF9077
:10052000DF90CF90BF90AF900895FC01538D448D24
:10053000252F30E0842F90E0821B930B541710F08E
:10054000CF96089501970895FC01918D828D98179B
:1005500061F0A28DAE0FBF2FB11D5D968C91928D73
:100560009F5F9F73928F90E008958FEF9FEF0895A4
:10057000FC01918D828D981731F0828DE80FF11D6D
:10058000858D90E008958FEF9FEF0895FC01918D88
:10059000228D892F90E0805C9F4F821B91098F7381
:1005A000992708958BE493E00E94C60221E0892BED
:1005B00009F420E0822F0895FC01A48DA80FB92F23
:1005C000B11DA35ABF4F2C91848D90E001968F737B
:1005D0009927848FA689B7892C93A089B1898C919A
:1005E000837080648C93938D848D981306C00288E9
:1005F000F389E02D80818F7D80830895EF92FF92B3
:100600000F931F93CF93DF93EC0181E0888F9B8D35
:100610008C8D98131AC0E889F989808185FF15C0EF
:100620009FB7F894EE89FF896083E889F989808112
:100630008370806480839FBF81E090E0DF91CF91E1
:100640001F910F91FF90EF900895F62E0B8D10E003
:100650000F5F1F4F0F731127E02E8C8D8E110CC072
:100660000FB607FCFACFE889F989808185FFF5CFBD
:10067000CE010E94DC02F1CFEB8DEC0FFD2FF11DBE
:10068000E35AFF4FF0829FB7F8940B8FEA89FB89FA
:1006900080818062CFCFCF93DF93EC01888D882358
:1006A000B9F0AA89BB89E889F9898C9185FD03C0D5
:1006B000808186FD0DC00FB607FCF7CF8C9185FFBA
:1006C000F2CF808185FFEDCFCE010E94DC02E9CF21
:1006D000DF91CF91089580E090E0892B29F00E946E
:1006E000D20281110E94000080E090E0892B49F045
:1006F00080E090E0892B29F00E94000081110E9487
:10070000000080E090E0892B49F080E090E0892BA8
:1007100029F00E94000081110E94000080E090E01A
:10072000892B49F080E090E0892B29F00E9400009D
:1007300081110C9400000895DC0180E0615090F07C
:100740009D919827E92FEF70F0E0E85BFE4F249130
:10075000E92FE295EF70F0E0E85AFE4FE491822F26
:100760008E27ECCF0895DC012C911196ED91FC9130
:10077000F8948181822B81839281322F309593234B
:10078000928387E090E00197F1F781818323818351
:1007900083E290E00197F1F790817894EFECF0E03C
:1007A0003197F1F7922381E009F480E00895FC018C
:1007B00090810180F281E02D292F209560FF14C0E7
:1007C000F8948281822382838181892B8183A3E2B1
:1007D000B0E01197F1F78281982B9283789487ED9E
:1007E00090E00197F1F70895F89482818223828343
:1007F0008181892B8183AFEFB0E01197F1F782817E
:10080000982B928378948FE090E0EBCFDF92EF9279
:10081000FF920F931F93CF93DF93EC01D62EE42E1C
:1008200008E010E0FF24F39461E08D2D8F2109F49E
:1008300060E0CE010E94D703FF0C01501109A1F71F
:10084000E11010C0F894E981FA8191818881809546
:1008500089238183E981FA81928188818095892326
:1008600082837894DF91CF911F910F91FF90EF9049
:10087000DF900895EF92FF920F931F93CF93DF9332
:100880008C017B0140E065E50E940604E70188E0F9
:10089000E80EF11C699140E0C8010E940604CE15E3
:1008A000DF05C1F7DF91CF911F910F91FF90EF907E
:1008B0000895FC0190810180F281E02DF8948181FE
:1008C000292F20958223818378943DE743E050E0EF
:1008D000315029F1DA011197F1F780818923C1F3B1
:1008E000F8948281822382838181892B8183789409
:1008F000ABE7B7E01197F1F7F89481818223818308
:10090000A3E1B1E01197F1F78081982381E009F02C
:1009100080E07894E3E6F6E03197F1F7089580E01F
:1009200008956F927F928F929F92AF92BF92CF92D3
:10093000DF92EF92FF920F931F93CF93DF938C017F
:10094000EB018091F1039091F2030E9459048823F6
:1009500009F43FC0B8018091F1039091F2030E9425
:100960003A0440E06EEB8091F1039091F2030E9413
:1009700006047E016E0189E0C80ED11C8E01A09094
:10098000F103B090F20388E0882E912C712C66243C
:100990006394C5010E94B30381117628660CE1E0DF
:1009A0008E1A9108B1F7F80171928F01CE16DF0609
:1009B00031F78091F1039091F2030E945904813044
:1009C00041F4F70181917F01811105C0E017F10722
:1009D000C1F790E008C068E0CE010E949C0391E05E
:1009E00028852813F6CF892FDF91CF911F910F9182
:1009F000FF90EF90DF90CF90BF90AF909F908F903F
:100A00007F906F9008950F931F93CF93DF9300D043
:100A100000D000D0CDB7DEB78C01BE016F5F7F4F35
:100A20000E94910420E834EE882361F12A8130E0AD
:100A3000322F2227330F330F330F898148E0849FF1
:100A4000C0011124282B392BF80180818031D1F489
:100A500068856623B9F070E08F81AB01481B5109AE
:100A6000CA019695982F8827979587950E94AC0C78
:100A70006052710953E0220F331F5A95E1F7207835
:100A8000260F371FC90129960FB6F894DEBF0FBE97
:100A9000CDBFDF91CF911F910F910895BF92CF925B
:100AA000DF92EF92FF920F931F93CF93DF93EC01AE
:100AB000B62EC72E8D85811105C0CE010E94590426
:100AC00081110EC01B861D861C8680E0DF91CF91B0
:100AD0001F910F91FF90EF90DF90CF90BF900895FE
:100AE00040E060EFCE010E94060401E0E12CD12C31
:100AF00011E0CE010E94B303F82ECE010E94B30391
:100B000091E0F91218C0813099F51134D8F2DB86E2
:100B1000D11002C081E08D878B81882399F22396C2
:100B2000EB2DFC2DCF01089629912193E817F907A9
:100B3000D9F781E0CBCFEE2DF0E0F8120FC08B8516
:100B40001817A0F4DE01AE0FBF1F13968C918023FF
:100B500079F4F12C193008F41C87D12EEC0FFD1F0D
:100B60008381902F9095892383830AC08113F1CFCD
:100B7000FE01EE0DF11D8381802B8383FF24F3940E
:100B80006F2DCE010E94D7031F5F000F11F4E39475
:100B900001E087E08E1508F0ACCFB7CFCF93DF939D
:100BA000EC01E091F103F091F203138615861486AF
:100BB000128611861086178216821582148213827D
:100BC000BC018091F1039091F2030E944E05982F91
:100BD000882341F067E0CE010E949C0391E02F81C1
:100BE000281390E0892FDF91CF910895FC010190A7
:100BF0000020E9F73197AF01481B590BBC018BE48A
:100C000093E00C9468028F929F92AF92BF920F93E1
:100C10001F93CF93DF93CDB7DEB7A1970FB6F894AC
:100C2000DEBF0FBECDBF19A2423008F44AE08E01EC
:100C30000F5D1F4F842E912CB12CA12CA501940186
:100C40000E94C00CE62FB901CA01EA30F4F4E05D5D
:100C5000D801EE938D01232B242B252B79F790E0DF
:100C600080E0109719F0CD010E94F605A1960FB60D
:100C7000F894DEBF0FBECDBFDF91CF911F910F91D2
:100C8000BF90AF909F908F900895E95CE1CFCF9295
:100C9000DF92EF92FF92CF93DF936C01990FEE08F2
:100CA000FF08F7FE19C06DE28BE493E00E94FE029C
:100CB000EC0166277727CB016C197D098E099F0906
:100CC0004AE00E9403068C0F9D1FDF91CF91FF9099
:100CD000EF90DF90CF9008954AE0C701B601DF9111
:100CE000CF91FF90EF90DF90CF900C94030688E3B4
:100CF00092E00C94F6050C94F6054F925F926F9279
:100D00007F928F929F92AF92BF92CF92DF92EF929B
:100D1000FF920F931F93CF936B017C01742EAC0154
:100D20009B010E94350F882399F08BE392E0CF91CD
:100D30001F910F91FF90EF90DF90CF90BF90AF90F9
:100D40009F908F907F906F905F904F900C94F605DE
:100D500046015701E894B7F82FEF3FEF4FE75FE701
:100D6000C501B4010E94350F81110DC02FEF3FEF77
:100D70004FE75FE7C501B4010E946B0D18161CF424
:100D80008FE392E0D4CF2FEF3FEF4FE75FE4C7014F
:100D9000B6010E94C30E18161CF483E492E0C7CF7C
:100DA0002FEF3FEF4FE75FECC701B6010E946B0DDD
:100DB00087FDF3CF20E030E0A901C701B6010E9412
:100DC0006B0D10E000E087FF0AC06DE28BE493E05A
:100DD0000E94FE028C01F7FAF094F7F8F094C0E05C
:100DE00060E070E080E09FE37C1641F020E030E0BE
:100DF00040E251E40E94700DCF5FF6CFA70196014B
:100E00000E94FF0C2B013C010E94E20D4B015C0192
:100E10004AE00E9403067C01E00EF11ECC23C1F1E2
:100E2000C501B4010E94110E9B01AC01C301B201C6
:100E30000E94FE0C4B015C016EE28BE493E00E9489
:100E4000FE02E80EF91EC15018F120E030E040E249
:100E500051E4C501B4010E94C80E2B013C010E945F
:100E6000E20D4B01B12CA12C4AE0C501B4010E9456
:100E70000306E80EF91EC501B4010E94110E9B0184
:100E8000AC01C301B2010E94FE0C4B015C01DBCF3F
:100E9000C701CF911F910F91FF90EF90DF90CF90FE
:100EA000BF90AF909F908F907F906F905F904F908A
:100EB00008951F920F920FB60F9211242F933F9314
:100EC0008F939F93AF93BF9380914303909144037B
:100ED000A0914503B09146033091420323E0230FD4
:100EE0002D3758F50196A11DB11D20934203809323
:100EF000430390934403A0934503B093460380912A
:100F0000470390914803A0914903B0914A03019689
:100F1000A11DB11D8093470390934803A0934903FB
:100F2000B0934A03BF91AF919F918F913F912F91C1
:100F30000F900FBE0F901F90189526E8230F029672
:100F4000A11DB11DD2CF1F920F920FB60F92112487
:100F50000BB60F922F933F934F935F936F937F93B3
:100F60008F939F93AF93BF93EF93FF938BE493E0A3
:100F70000E94DC02FF91EF91BF91AF919F918F9101
:100F80007F916F915F914F913F912F910F900BBE89
:100F90000F900FBE0F901F9018951F920F920FB6D3
:100FA0000F9211240BB60F922F938F939F93EF9371
:100FB000FF93E0915B03F0915C038081E09161031A
:100FC000F091620382FD1DC09081809164038F5F68
:100FD0008F7320916503821741F0E0916403F0E084
:100FE000E55BFC4F958F80936403FF91EF919F9198
:100FF0008F912F910F900BBE0F900FBE0F901F90EF
:1010000018958081F2CFCF93DF9310924E03109208
:101010004D0388EE93E0A0E0B0E080934F039093FF
:101020005003A0935103B09352038AE292E090934D
:101030004C0380934B0385EC90E09093580380938E
:10104000570384EC90E090935A038093590380EC0B
:1010500090E090935C0380935B0381EC90E090932D
:101060005E0380935D0382EC90E090936003809335
:101070005F0386EC90E0909362038093610310928B
:10108000640310926503109266031092670347E5AC
:1010900052E0FA01649181E192E0FC012491222363
:1010A000C1F030E0220F331FF901E853FE4FA59144
:1010B000B491F901E255FE4FC591D4917FB7F894F0
:1010C0003C91262F209532233C933881232328837B
:1010D0007FBFFA0144914093FF03FC018491E82F04
:1010E000F0E0EE0FFF1FEE51FE4F8591949190932B
:1010F00001048093000410920A0410920C041092D0
:101100000B04109209041092080410920704109224
:101110000604109205041092040410920304109225
:1011200002041092FE031092FD031092E9038FEF68
:1011300093E09093F2038093F1031092EF031092E7
:10114000F0031092E80389E08093EB0381E0809341
:10115000EC038093ED038093EE03DF91CF9108952C
:10116000CF93DF93CDB7DEB761970FB6F894DEBFAC
:101170000FBECDBF789484B5826084BD84B5816094
:1011800084BD85B5826085BD85B5816085BD809152
:101190006E00816080936E001092810080918100CA
:1011A00082608093810080918100816080938100C2
:1011B000809180008160809380008091B100846084
:1011C0008093B1008091B00081608093B0008091E5
:1011D0009100826080939100809191008160809362
:1011E0009100809190008160809390008091A10097
:1011F00082608093A1008091A10081608093A10012
:101200008091A00081608093A00080912101826084
:10121000809321018091210181608093210180913F
:10122000200181608093200180917A008460809306
:101230007A0080917A00826080937A0080917A00AF
:10124000816080937A0080917A00806880937A0030
:101250001092C100E0915B03F0915C0382E0808317
:10126000E0915703F09158031082E0915903F091F7
:101270005A038FEC808310926303E0915F03F09137
:10128000600386E08083E0915D03F0915E038081DE
:1012900080618083E0915D03F0915E0380818860CE
:1012A0008083E0915D03F0915E038081806880839C
:1012B000E0915D03F0915E0380818F7D8083E091FA
:1012C000F103F091F20313861586148612861186B7
:1012D0001086178216821582148213821092EF03F1
:1012E0001092F00311E0BE01665F7F4F8091F10321
:1012F0009091F2030E944E05882309F475C067E0BF
:10130000CE010A960E949C0399898913ECCF8091A3
:10131000EF038F5F8093EF038A85883231F008F006
:1013200049C0803111F08232F1F68091F0038F5F75
:101330008093F0038091E803811128C08091F1032C
:101340009091F2030E945904BE01665F7F4F809125
:10135000F1039091F2030E943A0440E064EB809123
:10136000F1039091F2030E9406048091F1039091A1
:10137000F2030E94B303082F8091F1039091F203CE
:101380000E945904011102C01093E8038A8580313C
:10139000E1F0BE016F5F7F4FCE010A960E9491047B
:1013A000882331F08D818F33D9F058F48F31D1F00B
:1013B00080E00EC08B3309F4B8CF823409F093CFAC
:1013C000B4CF8F3521F08F3799F78CE001C08BE0D7
:1013D0009091EB03981708F086CF8093EB0383CFAF
:1013E0008AE0F6CF89E0F4CF68E1C62E62E0D62E1F
:1013F00070E1A72E72E0B72EE0E08E2EE2E09E2E86
:101400000AEB12E0F12CE12C2FEFE21AF20AF801BC
:10141000F182E082F601819191916F01F80195834B
:101420008483F501219131915F01F8013383228397
:10143000F40141915191619171914F01F8014287FD
:10144000538764877587178216829C013327F901B9
:10145000EE5BFD4F4491F901E450FE4FE491EE2321
:10146000A1F02E2F30E0220F331FF901E853FE4F79
:10147000A591B491F901E255FE4F259134912FB712
:10148000F894EC914E2B4C932FBF60E00E947801B2
:101490000E5D1F4FF4E0EF16F10409F0B5CF809117
:1014A000F1039091F2030E94590440E06CEC8091AA
:1014B000F1039091F2030E9406044091E80364E472
:1014C0008091F1039091F2030E9406048091EC0355
:1014D000882311F1E091EB038091ED03882309F457
:1014E000C8C18091E8038111C4C10E945C026B01F4
:1014F0007C018091F1039091F2030E94B30381304B
:1015000059F00E945C026C197D098E099F096E3E9C
:1015100072408105910568F38CE492E00E947B069D
:101520000E9477060AEB12E0312C212CCE010196A5
:101530000E94CE058111C5C160E070E08EEF92EC93
:10154000F801628F738F848F958FCE0101960E9470
:10155000CE058111CCC18AE9C82E89E9D82E84E450
:10156000E82E83ECF82EF801C68ED78EE0A2F1A209
:1015700082849384A484B58427E333E945E25CE361
:10158000C701B6010E94C80E9B01AC016DE17AE56E
:1015900085E891EC0E94FE0C2B013C01A70196010D
:1015A000C701B6010E94C80E21EF36EB48E95AE3A5
:1015B0000E94C80E9B01AC01C301B2010E94FF0C46
:1015C0002B013C0126EB33E841E35EE3C701B601A2
:1015D0000E94C80EA50194010E94C80E9B01AC0197
:1015E000C301B2010E94FF0C6B017C0124EF33ECBC
:1015F00047E850E4C501B4010E94C80E9B01AC014C
:10160000C701B6010E94FF0C6B017C01A50194018A
:10161000C501B4010E94C80E26E231E24CE85DE348
:101620000E94C80E9B01AC01C701B6010E94FE0CCE
:10163000F801628B738B848B958B8281863308F0E3
:10164000865320917B00982F9870277F922B909340
:101650007B008770806480937C0080917A00806436
:1016600080937A0080917A0086FDFCCF909178007B
:101670008091790089279827892786569109FCE36C
:10168000F89FB001F99F700D1124072E000C880BF4
:10169000990B0E94130E20E030E04DE454E40E94C8
:1016A000700DF801668B778B808F918F228933893B
:1016B000448955890E94700DF8012285338544853F
:1016C00055850E94C80EF80166877787808B918BBD
:1016D0000E945C02F801C680D7800D2C000CEE0839
:1016E000FF086C197D098E099F0920E63AEE40E05B
:1016F00050E00E94C00CF80131872087228933898D
:101700004489558966897789808D918D0E94C30EA1
:1017100018160CF00AC161E0F80184810E9478017A
:1017200064E670E080E090E00E94290260E0F80149
:1017300084810E9478010E945C02F80177836683AD
:101740001186108687E492E00E947B06F801808172
:1017500091810E94470689E492E00E947B060E94E4
:1017600077068EE492E00E947B06F8016289738915
:101770008489958942E00E947D0684EB92E00E9474
:101780007B060E9477068EE592E00E947B06F801B8
:1017900066897789808D918D42E00E947D0684EB79
:1017A00092E00E947B060E9477068EE692E00E94FD
:1017B0007B06F801628573858485958542E00E94E9
:1017C0007D0684EB92E00E947B060E9477068EE7FE
:1017D00092E00E947B06F801668577858089918971
:1017E00042E00E947D0684EB92E00E947B060E940C
:1017F00077068FE892E00E947B06F801628D738D78
:10180000848D958D42E00E947D0684EB92E00E94DB
:101810007B060E94770680EA92E00E947B06F80130
:10182000808591850E94470682EB92E0F3E02F16B7
:10183000310441F487EB92E00E947B060E94770618
:1018400088EB92E00E947B060E9477062FEF221A17
:10185000320A0E5D1F4F84E02816310409F066CE6F
:1018600068E873E180E090E00E9429020E946B0327
:1018700016CEE9508EEE92E0E33038F4F0E0EE0F51
:10188000FF1FE05EFD4F808191816C01990FEE0892
:10189000FF088091E903882329F060E08091EA0342
:1018A0000E947801C701B6010E9429028091E903D4
:1018B000882309F431CE61E08091EA030E94780127
:1018C0002BCECE0101960E9403058138E4EE9E07DF
:1018D0000CF432CEBC01990F880B990B0E94130EA9
:1018E00020E030E040E05CE30E94C80E29CECE014B
:1018F00001960E9403058138F4EE9F070CF42BCE6D
:10190000BC01990F880B990B0E94130E26E636E650
:1019100046E65CE30E94C80E20E030E040E052E47E
:101920000E94FF0C6B017C011ECE0E945C02F8013C
:10193000C680D7800D2C000CEE08FF086C197D09BD
:101940008E099F0920E63AEE40E050E00E94C00C6C
:10195000F80131872087F6CE97FB072E16F4009406
:1019600007D077FD09D00E94EA0C07FC05D03EF4B1
:10197000909581959F4F0895709561957F4F08953B
:10198000A1E21A2EAA1BBB1BFD010DC0AA1FBB1F83
:10199000EE1FFF1FA217B307E407F50720F0A21BF5
:1019A000B30BE40BF50B661F771F881F991F1A9462
:1019B00069F760957095809590959B01AC01BD018C
:1019C000CF010895EE0FFF1F881F8BBF0790F69180
:1019D000E02D1994AA1BBB1B51E107C0AA1FBB1F16
:1019E000A617B70710F0A61BB70B881F991F5A95AB
:1019F000A9F780959095BC01CD0108955058BB275B
:101A0000AA270E94160D0C94890E0E947B0E38F0B6
:101A10000E94820E20F039F49F3F19F426F40C94B2
:101A2000780E0EF4E095E7FB0C94720EE92F0E94FD
:101A30009A0E58F3BA17620773078407950720F0C8
:101A400079F4A6F50C94BC0E0EF4E0950B2EBA2F8B
:101A5000A02D0B01B90190010C01CA01A0011124B4
:101A6000FF27591B99F0593F50F4503E68F11A1660
:101A7000F040A22F232F342F4427585FF3CF4695F1
:101A800037952795A795F0405395C9F77EF41F1613
:101A9000BA0B620B730B840BBAF09150A1F0FF0FDD
:101AA000BB1F661F771F881FC2F70EC0BA0F621FC9
:101AB000731F841F48F4879577956795B795F795B9
:101AC0009E3F08F0B0CF9395880F08F09927EE0F4E
:101AD0009795879508950E944E0E08F481E0089529
:101AE0000E94840D0C94890E0E94820E58F00E9470
:101AF0007B0E40F029F45F3F29F00C94720E5111D7
:101B00000C94BD0E0C94780E0E949A0E68F39923E3
:101B1000B1F3552391F3951B550BBB27AA276217E9
:101B20007307840738F09F5F5F4F220F331F441FF6
:101B3000AA1FA9F335D00E2E3AF0E0E832D091502A
:101B40005040E695001CCAF72BD0FE2F29D0660F17
:101B5000771F881FBB1F261737074807AB07B0E85A
:101B600009F0BB0B802DBF01FF2793585F4F3AF060
:101B70009E3F510578F00C94720E0C94BD0E5F3FA1
:101B8000E4F3983ED4F3869577956795B795F795E6
:101B90009F5FC9F7880F911D9695879597F90895CE
:101BA000E1E0660F771F881FBB1F6217730784076A
:101BB000BA0720F0621B730B840BBA0BEE1F88F779
:101BC000E09508950E94A20E88F09F5798F0B92FD3
:101BD0009927B751B0F0E1F0660F771F881F991F62
:101BE0001AF0BA95C9F714C0B13091F00E94BC0E3A
:101BF000B1E008950C94BC0E672F782F8827B85F4A
:101C000039F0B93FCCF3869577956795B395D9F7B9
:101C10003EF490958095709561957F4F8F4F9F4FC3
:101C20000895E89409C097FB3EF4909580957095CF
:101C300061957F4F8F4F9F4F9923A9F0F92F96E918
:101C4000BB279395F695879577956795B795F1118D
:101C5000F8CFFAF4BB0F11F460FF1BC06F5F7F4F2A
:101C60008F4F9F4F16C0882311F096E911C077233C
:101C700021F09EE8872F762F05C0662371F096E845
:101C8000862F70E060E02AF09A95660F771F881F14
:101C9000DAF7880F9695879597F90895990F0008B8
:101CA000550FAA0BE0E8FEEF16161706E807F9072E
:101CB000C0F012161306E407F50798F0621B730BC9
:101CC000840B950B39F40A2661F0232B242B252B4A
:101CD00021F408950A2609F4A140A6958FEF811DED
:101CE000811D089597F99F6780E870E060E008958E
:101CF0009FEF80EC089500240A9416161706180624
:101D00000906089500240A941216130614060506FF
:101D10000895092E0394000C11F4882352F0BB0F90
:101D200040F4BF2B11F460FF04C06F5F7F4F8F4FF3
:101D30009F4F089557FD9058440F551F59F05F3F2E
:101D400071F04795880F97FB991F61F09F3F79F0DD
:101D500087950895121613061406551FF2CF46955F
:101D6000F1DF08C0161617061806991FF1CF8695E1
:101D70007105610508940895E894BB2766277727C5
:101D8000CB0197F908950E944E0E08F48FEF089545
:101D90000E94DB0E0C94890E0E947B0E38F00E948C
:101DA000820E20F0952311F00C94720E0C94780E94
:101DB00011240C94BD0E0E949A0E70F3959FC1F3EE
:101DC000950F50E0551F629FF001729FBB27F00DE9
:101DD000B11D639FAA27F00DB11DAA1F649F66273E
:101DE000B00DA11D661F829F2227B00DA11D621F8D
:101DF000739FB00DA11D621F839FA00D611D221F47
:101E0000749F3327A00D611D231F849F600D211D2A
:101E1000822F762F6A2F11249F5750409AF0F1F0AD
:101E200088234AF0EE0FFF1FBB1F661F771F881F16
:101E300091505040A9F79E3F510580F00C94720ECE
:101E40000C94BD0E5F3FE4F3983ED4F386957795EE
:101E50006795B795F795E7959F5FC1F7FE2B880FBC
:101E6000911D9695879597F908950E944E0E880BBF
:081E7000990B0895F894FFCFCF
:101E7800000080400000804000008040000080405A
:101E8800000001000200030004000500060007002E
:101E98005E00BC00770100000000FE0268029502A7
:101EA8004B03C602A402B8020D0A006E616E0069F7
:101EB8006E66006F7666002200223A207B00227050
:101EC80073692074617267657422203A2000226168
:101ED800637475616C2070736922203A2000227641
:101EE8006F6C2074617267657422203A2000226149
:101EF800637475616C20766F6C7322203A2000221F
:101F080074656D706572617475726522203A20007F
:101F180022656C61707365645F74696D6522203A2F
:0A1F28002000207D2C2000207D0009
:00000001FF
