:100000000C9445010C9476010C9476010C947601C5
:100010000C9476010C9476010C9476010C94760184
:100020000C9476010C9476010C9476010C94760174
:100030000C9476010C9476010C9476010C94760164
:100040000C9476010C9476010C9476010C94760154
:100050000C9476010C9476010C9476010C9459075B
:100060000C9476010C94CD070C94A3070C947601A4
:100070000C9476010C9476010C9476010C94760124
:100080000C9476010C9476010C9476010C94760114
:100090000C9476010C9476010C9476010C94760104
:1000A0000C9476010C9476010C9476010C947601F4
:1000B0000C9476010C9476010C9476010C947601E4
:1000C0000C9476010C9476010C9476010C947601D4
:1000D0000C9476010C9476010C9476010C947601C4
:1000E0000C9476010C94CE010C94C6020C94D401AD
:1000F0000C94E6010C94FE020C94AD010C94EC01FE
:100100000C94C7010C94CB010C94A4020C94F40140
:100110000C94F0010C9403080C94BF010C94A801FA
:100120000C94FA010C94DE010C94C3010C94680247
:100130000C944B030C94D8010C94B8020C94E2017B
:100140000C94FE010C949502005EBCE2613FDD83DD
:10015000C29C7E20A3FD1F41009D23BE46DB65F8A7
:100160008C11AF32CA57E97400000A0B02090C0D5A
:100170000E0807030401000000000000000000005A
:10018000000000000000000000000000000000006F
:10019000000000001211100000000000000000002C
:1001A000000000000000000000000000000000004F
:1001B0002200250028002B002E003100340002010F
:1001C0000000050108010B010000210024002700A8
:1001D0002A002D0030003300010100000401070156
:1001E0000A01000020002300260029002C002F0017
:1001F00032000001000003010601090105050505A3
:10020000070508080808020202020A0A080804048E
:1002100004040101010101010101030303030303BC
:100220000303040707070C0C0C0C0C0C0C0C02024B
:10023000020206060606060606060B0B0B0B0B0B48
:100240000B0B0102102020080810204010204080D5
:10025000020102010804020101020408102040808A
:100260008040201008040201800402018040201018
:100270000804020108040201010204081020408061
:100280000102040810204080030811241FBECFEF94
:10029000D1E2DEBFCDBF00E00CBF12E0A0E0B2E0D3
:1002A000ECE2FFE100E00BBF02C007900D92AE3B15
:1002B000B107D9F724E0AEEBB2E001C01D92A9323C
:1002C000B207E1F711E0C5E4D1E000E006C02197F4
:1002D0000109802FFE010E94350DC434D10780E052
:1002E0000807A9F70E94E6080C94940F0C940000EC
:1002F000282F30E0F901E859FE4F9491F901EE5BA7
:10030000FD4F449124503E4FF9012491222309F4DA
:1003100035C0992311F191509231F8F4E92FF0E0B2
:100320008827EA56FE4F8F4F0C94350DC701CB013D
:10033000A801BF01C301AD01CE01D401D801DE0186
:10034000E201E601EC01F001AD01F401FA01FE0168
:10035000809180008F7780938000E22FF0E0EE0F95
:10036000FF1FE255FE4FA591B4918FB7F894EC9121
:10037000611148C040954E234C938FBF08958091E2
:1003800080008F7DE8CF80918000877FE4CF84B5A7
:100390008F7784BDE2CF84B58F7DFBCF8091B00095
:1003A0008F778093B000D9CF8091B0008F7DF9CF47
:1003B000809190008F7780939000CFCF80919000B4
:1003C0008F7DF9CF80919000877FF5CF8091A0003D
:1003D0008F778093A000C1CF8091A0008F7DF9CF4F
:1003E0008091A000877FF5CF809120018F77809347
:1003F0002001B3CF809120018F7DF9CF8091200122
:10040000877FF5CF4E2BB8CF3FB7F8948091C302CA
:100410009091C402A091C502B091C60226B5A89BD6
:1004200005C02F3F19F00196A11DB11D3FBFBA2F86
:10043000A92F982F8827BC01CD01620F711D811D46
:10044000911D42E0660F771F881F991F4A95D1F7CB
:1004500008958F929F92AF92BF92CF92DF92EF92C8
:10046000FF926B017C010E9404024B015C01C114EC
:10047000D104E104F104B9F00E9404026819790979
:100480008A099B09683E73408105910580F321E04C
:10049000C21AD108E108F10888EE880E83E0981EA0
:1004A000A11CB11CE4CFFF90EF90DF90CF90BF90E4
:1004B000AF909F908F9008952FB7F8946091BF02EE
:1004C0007091C0028091C1029091C2022FBF089525
:1004D000AF92BF92CF92DF92EF92FF920F931F9352
:1004E000CF93DF936C017B018B01040F151FEB0190
:1004F0005E01AE18BF08C017D10759F06991D60147
:10050000ED91FC910190F081E02DC6011995892BA8
:1005100079F7C501DF91CF911F910F91FF90EF9077
:10052000DF90CF90BF90AF900895FC01538D448D24
:10053000252F30E0842F90E0821B930B541710F08E
:10054000CF96089501970895FC01918D828D98179B
:1005500061F0A28DAE0FBF2FB11D5D968C91928D73
:100560009F5F9F73928F90E008958FEF9FEF0895A4
:10057000FC01918D828D981731F0828DE80FF11D6D
:10058000858D90E008958FEF9FEF0895FC01918D88
:10059000228D892F90E0805C9F4F821B91098F7381
:1005A0009927089587EC92E00E94C60221E0892BEA
:1005B00009F420E0822F0895FC01A48DA80FB92F23
:1005C000B11DA35ABF4F2C91848D90E001968F737B
:1005D0009927848FA689B7892C93A089B1898C919A
:1005E000837080648C93938D848D981306C00288E9
:1005F000F389E02D80818F7D80830895EF92FF92B3
:100600000F931F93CF93DF93EC0181E0888F9B8D35
:100610008C8D98131AC0E889F989808185FF15C0EF
:100620009FB7F894EE89FF896083E889F989808112
:100630008370806480839FBF81E090E0DF91CF91E1
:100640001F910F91FF90EF900895F62E0B8D10E003
:100650000F5F1F4F0F731127E02E8C8D8E110CC072
:100660000FB607FCFACFE889F989808185FFF5CFBD
:10067000CE010E94DC02F1CFEB8DEC0FFD2FF11DBE
:10068000E35AFF4FF0829FB7F8940B8FEA89FB89FA
:1006900080818062CFCFCF93DF93EC01888D882358
:1006A000B9F0AA89BB89E889F9898C9185FD03C0D5
:1006B000808186FD0DC00FB607FCF7CF8C9185FFBA
:1006C000F2CF808185FFEDCFCE010E94DC02E9CF21
:1006D000DF91CF91089580E090E0892B29F00E946E
:1006E000D20281110E94000080E090E0892B49F045
:1006F00080E090E0892B29F00E94000081110E9487
:10070000000080E090E0892B49F080E090E0892BA8
:1007100029F00E94000081110E94000080E090E01A
:10072000892B49F080E090E0892B29F00E9400009D
:1007300081110C9400000895DC0180E0615090F07C
:100740009D919827E92FEF70F0E0E85BFE4F249130
:10075000E92FE295EF70F0E0E85AFE4FE491822F26
:100760008E27ECCF0895DC012C911196ED91FC9130
:10077000F8948181822B81839281322F309593234B
:10078000928387E090E00197F1F781818323818351
:1007900083E290E00197F1F790817894EFECF0E03C
:1007A0003197F1F7922381E009F480E00895FC018C
:1007B00090810180F281E02D292F209560FF14C0E7
:1007C000F8948281822382838181892B8183A3E2B1
:1007D000B0E01197F1F78281982B9283789487ED9E
:1007E00090E00197F1F70895F89482818223828343
:1007F0008181892B8183AFEFB0E01197F1F782817E
:10080000982B928378948FE090E0EBCFDF92EF9279
:10081000FF920F931F93CF93DF93EC01D62EE42E1C
:1008200008E010E0FF24F39461E08D2D8F2109F49E
:1008300060E0CE010E94D703FF0C01501109A1F71F
:10084000E11010C0F894E981FA8191818881809546
:1008500089238183E981FA81928188818095892326
:1008600082837894DF91CF911F910F91FF90EF9049
:10087000DF900895EF92FF920F931F93CF93DF9332
:100880008C017B0140E065E50E940604E70188E0F9
:10089000E80EF11C699140E0C8010E940604CE15E3
:1008A000DF05C1F7DF91CF911F910F91FF90EF907E
:1008B0000895FC0190810180F281E02DF8948181FE
:1008C000292F20958223818378943DE743E050E0EF
:1008D000315029F1DA011197F1F780818923C1F3B1
:1008E000F8948281822382838181892B8183789409
:1008F000ABE7B7E01197F1F7F89481818223818308
:10090000A3E1B1E01197F1F78081982381E009F02C
:1009100080E07894E3E6F6E03197F1F7089580E01F
:1009200008956F927F928F929F92AF92BF92CF92D3
:10093000DF92EF92FF920F931F93CF93DF938C017F
:10094000EB0180910D0490910E040E9459048823BC
:1009500009F43FC0B80180910D0490910E040E94EB
:100960003A0440E06EEB80910D0490910E040E94D9
:1009700006047E016E0189E0C80ED11C8E01A09094
:100980000D04B0900E0488E0882E912C712C662402
:100990006394C5010E94B30381117628660CE1E0DF
:1009A0008E1A9108B1F7F80171928F01CE16DF0609
:1009B00031F780910D0490910E040E94590481300A
:1009C00041F4F70181917F01811105C0E017F10722
:1009D000C1F790E008C068E0CE010E949C0391E05E
:1009E00028852813F6CF892FDF91CF911F910F9182
:1009F000FF90EF90DF90CF90BF90AF909F908F903F
:100A00007F906F9008950F931F93CF93DF9300D043
:100A100000D000D0CDB7DEB78C01BE016F5F7F4F35
:100A20000E94910420E834EE882361F12A8130E0AD
:100A3000322F2227330F330F330F898148E0849FF1
:100A4000C0011124282B392BF80180818031D1F489
:100A500068856623B9F070E08F81AB01481B5109AE
:100A6000CA019695982F8827979587950E94FF0C25
:100A70006052710953E0220F331F5A95E1F7207835
:100A8000260F371FC90129960FB6F894DEBF0FBE97
:100A9000CDBFDF91CF911F910F910895BF92CF925B
:100AA000DF92EF92FF920F931F93CF93DF93EC01AE
:100AB000B62EC72E8D85811105C0CE010E94590426
:100AC00081110EC01B861D861C8680E0DF91CF91B0
:100AD0001F910F91FF90EF90DF90CF90BF900895FE
:100AE00040E060EFCE010E94060401E0E12CD12C31
:100AF00011E0CE010E94B303F82ECE010E94B30391
:100B000091E0F91218C0813099F51134D8F2DB86E2
:100B1000D11002C081E08D878B81882399F22396C2
:100B2000EB2DFC2DCF01089629912193E817F907A9
:100B3000D9F781E0CBCFEE2DF0E0F8120FC08B8516
:100B40001817A0F4DE01AE0FBF1F13968C918023FF
:100B500079F4F12C193008F41C87D12EEC0FFD1F0D
:100B60008381902F9095892383830AC08113F1CFCD
:100B7000FE01EE0DF11D8381802B8383FF24F3940E
:100B80006F2DCE010E94D7031F5F000F11F4E39475
:100B900001E087E08E1508F0ACCFB7CFCF93DF939D
:100BA000EC01E0910D04F0910E0413861586148675
:100BB000128611861086178216821582148213827D
:100BC000BC0180910D0490910E040E944E05982F57
:100BD000882341F067E0CE010E949C0391E02F81C1
:100BE000281390E0892FDF91CF910895FC010190A7
:100BF0000020E9F73197AF01481B590BBC0187EC86
:100C000092E00C9468028F929F92AF92BF920F93E2
:100C10001F93CF93DF93CDB7DEB7A1970FB6F894AC
:100C2000DEBF0FBECDBF19A2423008F44AE08E01EC
:100C30000F5D1F4F842E912CB12CA12CA501940186
:100C40000E94130DE62FB901CA01EA30F4F4E05D09
:100C5000D801EE938D01232B242B252B79F790E0DF
:100C600080E0109719F0CD010E94F605A1960FB60D
:100C7000F894DEBF0FBECDBFDF91CF911F910F91D2
:100C8000BF90AF909F908F900895E95CE1CFCF9295
:100C9000DF92EF92FF92CF93DF936C01990FEE08F2
:100CA000FF08F7FE19C06DE287EC92E00E94FE0299
:100CB000EC0166277727CB016C197D098E099F0906
:100CC0004AE00E9403068C0F9D1FDF91CF91FF9099
:100CD000EF90DF90CF9008954AE0C701B601DF9111
:100CE000CF91FF90EF90DF90CF900C94030688E3B4
:100CF00092E00C94F6050C94F6054F925F926F9279
:100D00007F928F929F92AF92BF92CF92DF92EF929B
:100D1000FF920F931F93CF936B017C01742EAC0154
:100D20009B010E948F0F882399F08BE392E0CF9173
:100D30001F910F91FF90EF90DF90CF90BF90AF90F9
:100D40009F908F907F906F905F904F900C94F605DE
:100D500046015701E894B7F82FEF3FEF4FE75FE701
:100D6000C501B4010E948F0F81110DC02FEF3FEF1D
:100D70004FE75FE7C501B4010E94BE0D18161CF4D1
:100D80008FE392E0D4CF2FEF3FEF4FE75FE4C7014F
:100D9000B6010E941D0F18161CF483E492E0C7CF21
:100DA0002FEF3FEF4FE75FECC701B6010E94BE0D8A
:100DB00087FDF3CF20E030E0A901C701B6010E9412
:100DC000BE0D10E000E087FF0AC06DE287EC92E004
:100DD0000E94FE028C01F7FAF094F7F8F094C0E05C
:100DE00060E070E080E09FE37C1641F020E030E0BE
:100DF00040E251E40E94C30DCF5FF6CFA7019601F8
:100E00000E94520D2B013C010E943C0E4B015C01E3
:100E10004AE00E9403067C01E00EF11ECC23C1F1E2
:100E2000C501B4010E946B0E9B01AC01C301B2016C
:100E30000E94510D4B015C016EE287EC92E00E9432
:100E4000FE02E80EF91EC15018F120E030E040E249
:100E500051E4C501B4010E94220F2B013C010E9404
:100E60003C0E4B01B12CA12C4AE0C501B4010E94FB
:100E70000306E80EF91EC501B4010E946B0E9B012A
:100E8000AC01C301B2010E94510D4B015C01DBCFEB
:100E9000C701CF911F910F91FF90EF90DF90CF90FE
:100EA000BF90AF909F908F907F906F905F904F908A
:100EB00008951F920F920FB60F9211242F933F9314
:100EC0008F939F93AF93BF938091BF029091C00285
:100ED000A091C102B091C2023091BE0223E0230F63
:100EE0002D3758F50196A11DB11D2093BE028093A8
:100EF000BF029093C002A093C102B093C20280913E
:100F0000C3029091C402A091C502B091C60201969D
:100F1000A11DB11D8093C3029093C402A093C5028A
:100F2000B093C602BF91AF919F918F913F912F9146
:100F30000F900FBE0F901F90189526E8230F029672
:100F4000A11DB11DD2CF1F920F920FB60F92112487
:100F50000BB60F922F933F934F935F936F937F93B3
:100F60008F939F93AF93BF93EF93FF9387EC92E0A0
:100F70000E94DC02FF91EF91BF91AF919F918F9101
:100F80007F916F915F914F913F912F910F900BBE89
:100F90000F900FBE0F901F9018951F920F920FB6D3
:100FA0000F9211240BB60F922F938F939F93EF9371
:100FB000FF93E091D702F091D8028081E091DD02A9
:100FC000F091DE0282FD1DC090818091E0028F5F72
:100FD0008F732091E102821741F0E091E002F0E08E
:100FE000E953FD4F958F8093E002FF91EF919F9120
:100FF0008F912F910F900BBE0F900FBE0F901F90EF
:1010000018958081F2CFCF93DF931092CA0210928D
:10101000C90288EE93E0A0E0B0E08093CB02909309
:10102000CC02A093CD02B093CE028AE292E09093DC
:10103000C8028093C70285EC90E09093D40280931D
:10104000D30284EC90E09093D6028093D50280EC9A
:1010500090E09093D8028093D70281EC90E0909337
:10106000DA028093D90282EC90E09093DC028093C4
:10107000DB0286EC90E09093DE028093DD0210921A
:10108000E0021092E1021092E2021092E30247E5C0
:1010900052E0FA01649181E192E0FC012491222363
:1010A000C1F030E0220F331FF901E853FE4FA59144
:1010B000B491F901E255FE4FC591D4917FB7F894F0
:1010C0003C91262F209532233C933881232328837B
:1010D0007FBFFA01449140931B04FC018491E82FE7
:1010E000F0E0EE0FFF1FEE51FE4F8591949190932B
:1010F0001D0480931C041092260410922804109260
:1011000027041092250410922404109223041092B4
:101110002204109221041092200410921F041092B5
:101120001E0410921A0410921904109205048BE107
:1011300094E090930E0480930D0410920B0410928F
:101140000C041092040489E08093070481E08093EA
:1011500008048093090480930A044CE350E0509300
:1011600065034093640326E630E0309367032093E1
:1011700066038AE993E09093690380936803509330
:101180008D0340938C0330938F0320938E039093B1
:101190009103809390035093B5034093B40330932D
:1011A000B7032093B6039093B9038093B803509389
:1011B000DD034093DC033093DF032093DE03909341
:1011C000E1038093E003DF91CF910895CF93DF9304
:1011D000CDB7DEB761970FB6F894DEBF0FBECDBFB7
:1011E000789484B5826084BD84B5816084BD85B502
:1011F000826085BD85B5816085BD80916E0081600E
:1012000080936E00109281008091810082608093B3
:1012100081008091810081608093810080918000B5
:101220008160809380008091B10084608093B100E0
:101230008091B00081608093B000809191008260C5
:1012400080939100809191008160809391008091C2
:1012500090008160809390008091A10082608093D3
:10126000A1008091A10081608093A1008091A000E5
:1012700081608093A0008091210182608093210190
:101280008091210181608093210180912001816002
:101290008093200180917A00846080937A0080910D
:1012A0007A00826080937A0080917A0081608093D6
:1012B0007A0080917A00806880937A001092C10051
:1012C000E091D702F091D80282E08083E091D302CE
:1012D000F091D4021082E091D502F091D6028FEC09
:1012E00080831092DF02E091DB02F091DC0286E065
:1012F0008083E091D902F091DA028081806180835D
:10130000E091D902F091DA02808188608083E091D7
:10131000D902F091DA02808180688083E091D9025D
:10132000F091DA0280818F7D8083E0910D04F0914D
:101330000E0413861586148612861186108617826F
:10134000168215821482138210920B0410920C04E0
:1013500011E0BE01665F7F4F80910D0490910E04F5
:101360000E944E05882309F475C067E0CE010A96F5
:101370000E949C0399898913ECCF80910B048F5FA5
:1013800080930B048A85883231F008F049C080319F
:1013900011F08232F1F680910C048F5F80930C047F
:1013A00080910404811128C080910D0490910E0455
:1013B0000E945904BE01665F7F4F80910D04909199
:1013C0000E040E943A0440E064EB80910D04909179
:1013D0000E040E94060480910D0490910E040E9458
:1013E000B303082F80910D0490910E040E945904BC
:1013F000011102C0109304048A858031E1F0BE011E
:101400006F5F7F4FCE010A960E949104882331F0CE
:101410008D818F33D9F058F48F31D1F080E00EC038
:101420008B3309F4B8CF823409F093CFB4CF8F3522
:1014300021F08F3799F78CE001C08BE09091070481
:10144000981708F086CF8093070483CF8AE0F6CF01
:1014500089E0F4CF48E1842E42E0942E50E1A52E9D
:1014600052E0B52E60E0662E62E0762E04E613E0D0
:10147000F12CE12C2FEFE21AF20AF801F782E68252
:10148000F401C190D1904F01F801D386C286F501D5
:10149000819191915F01F80191878087F30181919A
:1014A0009191A191B1913F01F801808B918BA28B19
:1014B000B38B0E945C02F80175876487C601992787
:1014C000FC01EE5BFD4F2491FC01E450FE4FE491E2
:1014D000EE23A1F08E2F90E0880F991FFC01E853B6
:1014E000FE4FA591B491FC01E255FE4F8591949178
:1014F0008FB7F894EC912E2B2C938FBF60E08C2D3E
:101500000E947801085D1F4FF4E0EF16F10409F026
:10151000B1CF80910D0490910E040E94590440E0D7
:101520006CEC80910D0490910E040E940604409191
:10153000040464E480910D0490910E040E9406045A
:1015400080910804882311F1E09107048091090437
:10155000882309F4E1C1809104048111DDC10E9456
:101560005C026B017C0180910D0490910E040E943D
:10157000B303813059F00E945C026C197D098E0919
:101580009F096E3E72408105910568F38CE492E0FC
:101590000E947B060E94770604E613E0312C212C82
:1015A000CE0101960E94CE058111DEC160E070E09F
:1015B0008EEF92ECF80160A371A382A393A3CE01F6
:1015C00001960E94CE058111E5C18AE9C82E89E9FC
:1015D000D82E84E4E82E83ECF82EF801C4A2D5A21C
:1015E000E6A2F7A280889188A288B38827E333E92E
:1015F00045E25CE3C701B6010E94220F9B01AC01EA
:101600006DE17AE585E891EC0E94510D2B013C01DA
:10161000A7019601C701B6010E94220F21EF36EB08
:1016200048E95AE30E94220F9B01AC01C301B201B9
:101630000E94520D2B013C0126EB33E841E35EE3AF
:10164000C701B6010E94220FA50194010E94220F3A
:101650009B01AC01C301B2010E94520D6B017C01E0
:1016600024EF33EC47E850E4C501B4010E94220F97
:101670009B01AC01C701B6010E94520D6B017C01B8
:10168000A5019401C501B4010E94220F26E231E2B6
:101690004CE85DE30E94220F9B01AC01C701B6013B
:1016A0000E94510DF801608F718F828F938F80851A
:1016B000863308F0865320917B00982F9870277FFF
:1016C000922B90937B008770806480937C00809144
:1016D0007A00806480937A0080917A0086FDFCCF46
:1016E0009091780080917900F801E280F380892759
:1016F000982789278E199F0920813181829FB00107
:10170000839F700D929F700D1124072E000C880B83
:10171000990B0E946D0E4B015C01F801648175818B
:101720006E197F09072E000C880B990B0E946D0E15
:101730009B01AC01C501B4010E94C30DF801648F87
:10174000758F868F978F208D318D428D538D0E949E
:10175000C30DF80120893189428953890E94220FE3
:10176000F801648B758B868B978B0E945C02F80165
:10177000C484D5840D2C000CEE08FF086C197D097B
:101780008E099F0920E63AEE40E050E00E94130DDA
:10179000CA01B9010E946B0E0E94350EF8017787CD
:1017A0006687208D318D428D538D648D758D868D2C
:1017B000978D0E941D0F18160CF00AC161E0F80108
:1017C00082850E94780164E670E080E090E00E94EB
:1017D000290260E0F80182850E9478010E945C0283
:1017E000F801758764871786168687E492E00E9461
:1017F0007B06F801868197810E94470689E492E082
:101800000E947B060E9477068EE492E00E947B068F
:10181000F801608D718D828D938D42E00E947D066E
:1018200087EB92E00E947B060E9477068EE592E0AD
:101830000E947B06F801648D758D868D978D42E040
:101840000E947D0687EB92E00E947B060E9477064D
:101850008EE692E00E947B06F80160897189828998
:10186000938942E00E947D0687EB92E00E947B060E
:101870000E9477068EE792E00E947B06F801648959
:1018800075898689978942E00E947D0687EB92E000
:101890000E947B060E9477068FE892E00E947B06FA
:1018A000F80160A171A182A193A142E00E947D068E
:1018B00087EB92E00E947B060E94770680EA92E026
:1018C0000E947B06F801868597850E94470685EB76
:1018D00092E0F3E02F16310441F48AEB92E00E948B
:1018E0007B060E9477068BEB92E00E947B060E94AB
:1018F00077062FEF221A320A085D1F4F84E0281660
:10190000310409F04DCE68E873E180E090E00E9478
:1019100029020E946B03FDCDE9508EEE92E0E33088
:1019200038F4F0E0EE0FFF1FE05EFD4F8081918103
:101930006C01990FEE08FF0880910504882329F0B7
:1019400060E0809106040E947801C701B6010E9400
:10195000290280910504882309F418CE61E0809162
:1019600006040E94780112CECE0101960E94030562
:101970008138E4EE9E070CF419CEBC01990F880B58
:10198000990B0E946D0E20E030E040E05CE30E9485
:10199000220F10CECE0101960E9403058138F4EE8D
:1019A0009F070CF412CEBC01990F880B990B0E9473
:1019B0006D0E26E636E646E65CE30E94220F20E046
:1019C00030E040E052E40E94520D6B017C0105CEF4
:1019D0000E945C02F801C484D5840D2C000CEE0832
:1019E000FF086C197D098E099F0920E63AEE40E058
:1019F00050E00E94130DF80137872687F6CE97FB3B
:101A0000072E16F4009407D077FD09D00E943D0DF3
:101A100007FC05D03EF4909581959F4F08957095F1
:101A200061957F4F0895A1E21A2EAA1BBB1BFD01F1
:101A30000DC0AA1FBB1FEE1FFF1FA217B307E407AD
:101A4000F50720F0A21BB30BE40BF50B661F771F05
:101A5000881F991F1A9469F76095709580959095E5
:101A60009B01AC01BD01CF010895EE0FFF1F881F40
:101A70008BBF0790F691E02D1994AA1BBB1B51E177
:101A800007C0AA1FBB1FA617B70710F0A61BB70BEE
:101A9000881F991F5A95A9F780959095BC01CD0193
:101AA00008955058BB27AA270E94690D0C94E30E95
:101AB0000E94D50E38F00E94DC0E20F039F49F3FD2
:101AC00019F426F40C94D20E0EF4E095E7FB0C9476
:101AD000CC0EE92F0E94F40E58F3BA176207730771
:101AE0008407950720F079F4A6F50C94160F0EF4F0
:101AF000E0950B2EBA2FA02D0B01B90190010C011E
:101B0000CA01A0011124FF27591B99F0593F50F435
:101B1000503E68F11A16F040A22F232F342F44278D
:101B2000585FF3CF469537952795A795F040539585
:101B3000C9F77EF41F16BA0B620B730B840BBAF055
:101B40009150A1F0FF0FBB1F661F771F881FC2F7C0
:101B50000EC0BA0F621F731F841F48F487957795D4
:101B60006795B795F7959E3F08F0B0CF9395880F8E
:101B700008F09927EE0F9795879508950E94A80E73
:101B800008F481E008950E94D70D0C94E30E0E94A2
:101B9000DC0E58F00E94D50E40F029F45F3F29F08A
:101BA0000C94CC0E51110C94170F0C94D20E0E9471
:101BB000F40E68F39923B1F3552391F3951B550B5C
:101BC000BB27AA2762177307840738F09F5F5F4F10
:101BD000220F331F441FAA1FA9F335D00E2E3AF04F
:101BE000E0E832D091505040E695001CCAF72BD067
:101BF000FE2F29D0660F771F881FBB1F26173707B8
:101C00004807AB07B0E809F0BB0B802DBF01FF27E9
:101C100093585F4F3AF09E3F510578F00C94CC0EEC
:101C20000C94170F5F3FE4F3983ED4F386957795B5
:101C30006795B795F7959F5FC9F7880F911D9695A2
:101C4000879597F90895E1E0660F771F881FBB1FFE
:101C5000621773078407BA0720F0621B730B840BAB
:101C6000BA0BEE1F88F7E09508950E943C0E689429
:101C7000B1110C94170F08950E94FC0E88F09F5725
:101C800098F0B92F9927B751B0F0E1F0660F771FA0
:101C9000881F991F1AF0BA95C9F714C0B13091F096
:101CA0000E94160FB1E008950C94160F672F782F3D
:101CB0008827B85F39F0B93FCCF38695779567955B
:101CC000B395D9F73EF490958095709561957F4FC7
:101CD0008F4F9F4F0895E89409C097FB3EF490956D
:101CE0008095709561957F4F8F4F9F4F9923A9F0F5
:101CF000F92F96E9BB279395F69587957795679584
:101D0000B795F111F8CFFAF4BB0F11F460FF1BC0C7
:101D10006F5F7F4F8F4F9F4F16C0882311F096E95A
:101D200011C0772321F09EE8872F762F05C0662308
:101D300071F096E8862F70E060E02AF09A95660FC1
:101D4000771F881FDAF7880F9695879597F908957A
:101D5000990F0008550FAA0BE0E8FEEF16161706BC
:101D6000E807F907C0F012161306E407F50798F024
:101D7000621B730B840B950B39F40A2661F0232B3D
:101D8000242B252B21F408950A2609F4A140A695B9
:101D90008FEF811D811D089597F99F6780E870E09E
:101DA00060E008959FEF80EC089500240A941616D1
:101DB000170618060906089500240A941216130639
:101DC000140605060895092E0394000C11F48823C7
:101DD00052F0BB0F40F4BF2B11F460FF04C06F5FE3
:101DE0007F4F8F4F9F4F089557FD9058440F551FB9
:101DF00059F05F3F71F04795880F97FB991F61F08D
:101E00009F3F79F087950895121613061406551F03
:101E1000F2CF4695F1DF08C0161617061806991F6F
:101E2000F1CF86957105610508940895E894BB2764
:101E300066277727CB0197F908950E94A80E08F42A
:101E40008FEF08950E94350F0C94E30E0E94D50E7B
:101E500038F00E94DC0E20F0952311F00C94CC0E8B
:101E60000C94D20E11240C94170F0E94F40E70F3F0
:101E7000959FC1F3950F50E0551F629FF001729F2F
:101E8000BB27F00DB11D639FAA27F00DB11DAA1F3E
:101E9000649F6627B00DA11D661F829F2227B00D8B
:101EA000A11D621F739FB00DA11D621F839FA00D16
:101EB000611D221F749F3327A00D611D231F849F66
:101EC000600D211D822F762F6A2F11249F575040BD
:101ED0009AF0F1F088234AF0EE0FFF1FBB1F661F38
:101EE000771F881F91505040A9F79E3F510580F001
:101EF0000C94CC0E0C94170F5F3FE4F3983ED4F390
:101F0000869577956795B795F795E7959F5FC1F7A4
:101F1000FE2B880F911D9695879597F908950E943D
:0C1F2000A80E880B990B0895F894FFCFD1
:101F2C0000008040000080400000804000008040A5
:101F3C000000010002000300040005000600070079
:101F4C005E00BC00770100000000FE0268029502F2
:101F5C004B03C602A402B8020D0A006E616E006942
:101F6C006E66006F7666002200223A207B0022709B
:101F7C0073692074617267657422203A20002261B3
:101F8C00637475616C2070736922203A200022768C
:101F9C006F6C2074617267657422203A2000226194
:101FAC00637475616C20766F6C7322203A2000226A
:101FBC0074656D706572617475726522203A2000CB
:101FCC00226D696E735F73696E63655F76656E749F
:0E1FDC0022203A2000207D2C2000207D0000D5
:00000001FF
