:100000000C9445010C9476010C9476010C947601C5
:100010000C9476010C9476010C9476010C94760184
:100020000C9476010C9476010C9476010C94760174
:100030000C9476010C9476010C9476010C94760164
:100040000C9476010C9476010C9476010C94760154
:100050000C9476010C9476010C9476010C94D207E2
:100060000C9476010C9446080C941C080C947601B0
:100070000C9476010C9476010C9476010C94760124
:100080000C9476010C9476010C9476010C94760114
:100090000C9476010C9476010C9476010C94760104
:1000A0000C9476010C9476010C9476010C947601F4
:1000B0000C9476010C9476010C9476010C947601E4
:1000C0000C9476010C9476010C9476010C947601D4
:1000D0000C9476010C9476010C9476010C947601C4
:1000E0000C9476010C94FE020C94F0010C94E20145
:1000F0000C94CB010C94FE010C94E6010C94680264
:100100000C94B8020C94C3010C947C080C94D40198
:100110000C94BF010C9495020C94A8010C94CE0190
:100120000C94EC010C94A4020C94DE010C94F401E8
:100130000C944B030C94D8010C94FA010C94C60255
:100140000C94AD010C94C701005EBCE2613FDD83FD
:10015000C29C7E20A3FD1F41009D23BE46DB65F8A7
:100160008C11AF32CA57E97400000A0B02090C0D5A
:100170000E0807030401000000000000000000005A
:10018000000000000000000000000000000000006F
:10019000000000001211100000000000000000002C
:1001A000000000000000000000000000000000004F
:1001B0002200250028002B002E003100340002010F
:1001C0000000050108010B010000210024002700A8
:1001D0002A002D0030003300010100000401070156
:1001E0000A01000020002300260029002C002F0017
:1001F00032000001000003010601090105050505A3
:10020000070508080808020202020A0A080804048E
:1002100004040101010101010101030303030303BC
:100220000303040707070C0C0C0C0C0C0C0C02024B
:10023000020206060606060606060B0B0B0B0B0B48
:100240000B0B0102102020080810204010204080D5
:10025000020102010804020101020408102040808A
:100260008040201008040201800402018040201018
:100270000804020108040201010204081020408061
:1002800001020408102040807C0811241FBECFEF1B
:10029000D1E2DEBFCDBF00E00CBF12E0A0E0B2E0D3
:1002A000E6E6FEE100E00BBF02C007900D92AE391A
:1002B000B107D9F723E0AEE9B2E001C01D92A13F3A
:1002C000B207E1F711E0C5E4D1E000E006C02197F4
:1002D0000109802FFE010E94D90CC434D10780E0AF
:1002E0000807A9F70E9429090C94310F0C9400000B
:1002F000282F30E0F901E859FE4F9491F901EE5BA7
:10030000FD4F449124503E4FF9012491222309F4DA
:1003100035C0992311F191509231F8F4E92FF0E0B2
:100320008827EA56FE4F8F4F0C94D90CC701CB019A
:10033000A801BF01C301AD01CE01D401D801DE0186
:10034000E201E601EC01F001AD01F401FA01FE0168
:10035000809180008F7780938000E22FF0E0EE0F95
:10036000FF1FE255FE4FA591B4918FB7F894EC9121
:10037000611148C040954E234C938FBF08958091E2
:1003800080008F7DE8CF80918000877FE4CF84B5A7
:100390008F7784BDE2CF84B58F7DFBCF8091B00095
:1003A0008F778093B000D9CF8091B0008F7DF9CF47
:1003B000809190008F7780939000CFCF80919000B4
:1003C0008F7DF9CF80919000877FF5CF8091A0003D
:1003D0008F778093A000C1CF8091A0008F7DF9CF4F
:1003E0008091A000877FF5CF809120018F77809347
:1003F0002001B3CF809120018F7DF9CF8091200122
:10040000877FF5CF4E2BB8CF3FB7F89480912B0361
:1004100090912C03A0912D03B0912E0326B5A89B9B
:1004200005C02F3F19F00196A11DB11D3FBFBA2F86
:10043000A92F982F8827BC01CD01620F711D811D46
:10044000911D42E0660F771F881F991F4A95D1F7CB
:1004500008958F929F92AF92BF92CF92DF92EF92C8
:10046000FF926B017C010E9404024B015C01C114EC
:10047000D104E104F104B9F00E9404026819790979
:100480008A099B09683E73408105910580F321E04C
:10049000C21AD108E108F10888EE880E83E0981EA0
:1004A000A11CB11CE4CFFF90EF90DF90CF90BF90E4
:1004B000AF909F908F9008952FB7F8946091270385
:1004C000709128038091290390912A032FBF0895EA
:1004D000AF92BF92CF92DF92EF92FF920F931F9352
:1004E000CF93DF936C017B018B01040F151FEB0190
:1004F0005E01AE18BF08C017D10759F06991D60147
:10050000ED91FC910190F081E02DC6011995892BA8
:1005100079F7C501DF91CF911F910F91FF90EF9077
:10052000DF90CF90BF90AF900895FC01538D448D24
:10053000252F30E0842F90E0821B930B541710F08E
:10054000CF96089501970895FC01918D828D98179B
:1005500061F0A28DAE0FBF2FB11D5D968C91928D73
:100560009F5F9F73928F90E008958FEF9FEF0895A4
:10057000FC01918D828D981731F0828DE80FF11D6D
:10058000858D90E008958FEF9FEF0895FC01918D88
:10059000228D892F90E0805C9F4F821B91098F7381
:1005A000992708958FE293E00E94C60221E0892BEB
:1005B00009F420E0822F0895FC01A48DA80FB92F23
:1005C000B11DA35ABF4F2C91848D90E001968F737B
:1005D0009927848FA689B7892C93A089B1898C919A
:1005E000837080648C93938D848D981306C00288E9
:1005F000F389E02D80818F7D80830895EF92FF92B3
:100600000F931F93CF93DF93EC0181E0888F9B8D35
:100610008C8D98131AC0E889F989808185FF15C0EF
:100620009FB7F894EE89FF896083E889F989808112
:100630008370806480839FBF81E090E0DF91CF91E1
:100640001F910F91FF90EF900895F62E0B8D10E003
:100650000F5F1F4F0F731127E02E8C8D8E110CC072
:100660000FB607FCFACFE889F989808185FFF5CFBD
:10067000CE010E94DC02F1CFEB8DEC0FFD2FF11DBE
:10068000E35AFF4FF0829FB7F8940B8FEA89FB89FA
:1006900080818062CFCFCF93DF93EC01888D882358
:1006A000B9F0AA89BB89E889F9898C9185FD03C0D5
:1006B000808186FD0DC00FB607FCF7CF8C9185FFBA
:1006C000F2CF808185FFEDCFCE010E94DC02E9CF21
:1006D000DF91CF91089580E090E0892B29F00E946E
:1006E000D20281110E94000080E090E0892B49F045
:1006F00080E090E0892B29F00E94000081110E9487
:10070000000080E090E0892B49F080E090E0892BA8
:1007100029F00E94000081110E94000080E090E01A
:10072000892B49F080E090E0892B29F00E9400009D
:1007300081110C9400000895DC0180E0615090F07C
:100740009D919827E92FEF70F0E0E85BFE4F249130
:10075000E92FE295EF70F0E0E85AFE4FE491822F26
:100760008E27ECCF0895DC012C911196ED91FC9130
:10077000F8948181822B81839281322F309593234B
:10078000928387E090E00197F1F781818323818351
:1007900083E290E00197F1F790817894EFECF0E03C
:1007A0003197F1F7922381E009F480E00895FC018C
:1007B00090810180F281E02D292F209560FF14C0E7
:1007C000F8948281822382838181892B8183A3E2B1
:1007D000B0E01197F1F78281982B9283789487ED9E
:1007E00090E00197F1F70895F89482818223828343
:1007F0008181892B8183AFEFB0E01197F1F782817E
:10080000982B928378948FE090E0EBCFDF92EF9279
:10081000FF920F931F93CF93DF93EC01D62EE42E1C
:1008200008E010E0FF24F39461E08D2D8F2109F49E
:1008300060E0CE010E94D703FF0C01501109A1F71F
:10084000E11010C0F894E981FA8191818881809546
:1008500089238183E981FA81928188818095892326
:1008600082837894DF91CF911F910F91FF90EF9049
:10087000DF900895EF92FF920F931F93CF93DF9332
:100880008C017B0140E065E50E940604E70188E0F9
:10089000E80EF11C699140E0C8010E940604CE15E3
:1008A000DF05C1F7DF91CF911F910F91FF90EF907E
:1008B0000895FC0190810180F281E02DF8948181FE
:1008C000292F20958223818378943DE743E050E0EF
:1008D000315029F1DA011197F1F780818923C1F3B1
:1008E000F8948281822382838181892B8183789409
:1008F000ABE7B7E01197F1F7F89481818223818308
:10090000A3E1B1E01197F1F78081982381E009F02C
:1009100080E07894E3E6F6E03197F1F7089580E01F
:1009200008956F927F928F929F92AF92BF92CF92D3
:10093000DF92EF92FF920F931F93CF93DF938C017F
:10094000EB018091D5039091D6030E94590488232E
:1009500009F43FC0B8018091D5039091D6030E945D
:100960003A0440E06EEB8091D5039091D6030E944B
:1009700006047E016E0189E0C80ED11C8E01A09094
:10098000D503B090D60388E0882E912C712C662474
:100990006394C5010E94B30381117628660CE1E0DF
:1009A0008E1A9108B1F7F80171928F01CE16DF0609
:1009B00031F78091D5039091D6030E94590481307C
:1009C00041F4F70181917F01811105C0E017F10722
:1009D000C1F790E008C068E0CE010E949C0391E05E
:1009E00028852813F6CF892FDF91CF911F910F9182
:1009F000FF90EF90DF90CF90BF90AF909F908F903F
:100A00007F906F9008950F931F93CF93DF9300D043
:100A100000D000D0CDB7DEB78C01BE016F5F7F4F35
:100A20000E94910420E834EE882361F12A8130E0AD
:100A3000322F2227330F330F330F898148E0849FF1
:100A4000C0011124282B392BF80180818031D1F489
:100A500068856623B9F070E08F81AB01481B5109AE
:100A6000CA019695982F8827979587950E94A30C81
:100A70006052710953E0220F331F5A95E1F7207835
:100A8000260F371FC90129960FB6F894DEBF0FBE97
:100A9000CDBFDF91CF911F910F910895CF92DF923B
:100AA000EF92FF928091D5039091D6030E94590452
:100AB00040E06CEC8091D5039091D6030E9406042F
:100AC0004091CC0364E48091D5039091D6030E94B9
:100AD00006048091D003882309F1E091CF0380912F
:100AE000D103882301F18091CC0381111CC00E94A5
:100AF0005C026B017C018091D5039091D6030E942A
:100B0000B303813059F00E945C026C197D098E0993
:100B10009F096E3E72408105910568F3FF90EF904A
:100B2000DF90CF900895E9508EEE92E0E33038F4F4
:100B3000F0E0EE0FFF1FE05EFD4F808191816C01C0
:100B4000990FEE08FF088091CD03882329F060E01B
:100B50008091CE030E947801C701B6010E9429024C
:100B60008091CD038823D1F261E08091CE03FF9084
:100B7000EF90DF90CF900C947801BF92CF92DF92EC
:100B8000EF92FF920F931F93CF93DF93EC01B62E5A
:100B9000C72E8D85811105C0CE010E945904811197
:100BA0000EC01B861D861C8680E0DF91CF911F91B1
:100BB0000F91FF90EF90DF90CF90BF90089540E0AD
:100BC00060EFCE010E94060401E0E12CD12C11E07F
:100BD000CE010E94B303F82ECE010E94B30391E030
:100BE000F91218C0813099F51134D8F2DB86D11092
:100BF00002C081E08D878B81882399F22396EB2DAB
:100C0000FC2DCF01089629912193E817F907D9F710
:100C100081E0CBCFEE2DF0E0F8120FC08B851817D6
:100C2000A0F4DE01AE0FBF1F13968C91802379F4E0
:100C3000F12C193008F41C87D12EEC0FFD1F838195
:100C4000902F9095892383830AC08113F1CFFE01F1
:100C5000EE0DF11D8381802B8383FF24F3946F2D90
:100C6000CE010E94D7031F5F000F11F4E39401E04F
:100C700087E08E1508F0ACCFB7CFCF93DF93EC01B0
:100C8000E091D503F091D60313861586148612865B
:100C90001186108617821682158214821382BC0177
:100CA0008091D5039091D6030E94BD05982F88238B
:100CB00041F067E0CE010E949C0391E02F81281350
:100CC00090E0892FDF91CF910895FC0101900020E1
:100CD000E9F73197AF01481B590BBC018FE293E054
:100CE0000C9468028F929F92AF92BF920F931F93C2
:100CF000CF93DF93CDB7DEB7A1970FB6F894DEBFE1
:100D00000FBECDBF19A2423008F44AE08E010F5D3C
:100D10001F4F842E912CB12CA12CA50194010E946F
:100D2000B70CE62FB901CA01EA30F4F4E05DD8014E
:100D3000EE938D01232B242B252B79F790E080E077
:100D4000109719F0CD010E946506A1960FB6F89490
:100D5000DEBF0FBECDBFDF91CF911F910F91BF902E
:100D6000AF909F908F900895E95CE1CFCF92DF9292
:100D7000EF92FF92CF93DF936C01990FEE08FF087B
:100D8000F7FE19C06DE28FE293E00E94FE02EC01D3
:100D900066277727CB016C197D098E099F094AE0E8
:100DA0000E9472068C0F9D1FDF91CF91FF90EF90F4
:100DB000DF90CF9008954AE0C701B601DF91CF914F
:100DC000FF90EF90DF90CF900C947206CF93DF935B
:100DD0000E946506EC0188E392E00E9465068C0F94
:100DE0009D1FDF91CF9108950C9465064F925F92FD
:100DF0006F927F928F929F92AF92BF92CF92DF922B
:100E0000EF92FF920F931F93CF936B017C01742E8F
:100E1000AC019B010E942C0F882399F08BE392E098
:100E2000CF911F910F91FF90EF90DF90CF90BF90E7
:100E3000AF909F908F907F906F905F904F900C94A9
:100E4000650646015701E894B7F82FEF3FEF4FE7EB
:100E50005FE7C501B4010E942C0F81110DC02FEF77
:100E60003FEF4FE75FE7C501B4010E94620D18161E
:100E70001CF48FE392E0D4CF2FEF3FEF4FE75FE416
:100E8000C701B6010E94BA0E18161CF483E492E062
:100E9000C7CF2FEF3FEF4FE75FECC701B6010E94CE
:100EA000620D87FDF3CF20E030E0A901C701B60154
:100EB0000E94620D10E000E087FF0AC06DE28FE241
:100EC00093E00E94FE028C01F7FAF094F7F8F09498
:100ED000C0E060E070E080E09FE37C1641F020E03D
:100EE00030E040E251E40E94670DCF5FF6CFA701EA
:100EF00096010E94F60C2B013C010E94D90D4B017A
:100F00005C014AE00E9472067C01E00EF11ECC23D7
:100F1000C1F1C501B4010E94080E9B01AC01C301DF
:100F2000B2010E94F50C4B015C016EE28FE293E08E
:100F30000E94FE02E80EF91EC15018F120E030E0D8
:100F400040E251E4C501B4010E94BF0E2B013C01F7
:100F50000E94D90D4B01B12CA12C4AE0C501B4016E
:100F60000E947206E80EF91EC501B4010E94080E27
:100F70009B01AC01C301B2010E94F50C4B015C0165
:100F8000DBCFC701CF911F910F91FF90EF90DF90C2
:100F9000CF90BF90AF909F908F907F906F905F9019
:100FA0004F9008951F920F920FB60F9211242F9316
:100FB0003F938F939F93AF93BF938091270390911B
:100FC0002803A0912903B0912A033091260323E03E
:100FD000230F2D3758F50196A11DB11D209326032F
:100FE0008093270390932803A0932903B0932A03A7
:100FF00080912B0390912C03A0912D03B0912E038F
:101000000196A11DB11D80932B0390932C03A093F7
:101010002D03B0932E03BF91AF919F918F913F917C
:101020002F910F900FBE0F901F90189526E8230F59
:101030000296A11DB11DD2CF1F920F920FB60F9233
:1010400011240BB60F922F933F934F935F936F939F
:101050007F938F939F93AF93BF93EF93FF938FE211
:1010600093E00E94DC02FF91EF91BF91AF919F91BD
:101070008F917F916F915F914F913F912F910F9041
:101080000BBE0F900FBE0F901F9018951F920F92DE
:101090000FB60F9211240BB60F922F938F939F933D
:1010A000EF93FF93E0913F03F09140038081E09143
:1010B0004503F091460382FD1DC090818091480355
:1010C0008F5F8F7320914903821741F0E0914803AD
:1010D000F0E0E15DFC4F958F80934803FF91EF9125
:1010E0009F918F912F910F900BBE0F900FBE0F907D
:1010F0001F9018958081F2CFCF93DF931092320327
:101100001092310388EE93E0A0E0B0E080933303C7
:1011100090933403A0933503B09336038AE292E0B0
:101120009093300380932F0385EC90E090933C03E1
:1011300080933B0384EC90E090933E0380933D03C7
:1011400080EC90E09093400380933F0381EC90E02B
:10115000909342038093410382EC90E09093440388
:101160008093430386EC90E090934603809345037D
:10117000109248031092490310924A0310924B03B5
:1011800045E452E0FA0164918FEF91E0FC01249173
:101190002223C1F030E0220F331FF901E853FE4F44
:1011A000A591B491F901E255FE4FC591D4917FB755
:1011B000F8943C91262F209532233C9338812323A9
:1011C00028837FBFFA0144914093E303FC0184919B
:1011D000E82FF0E0EE0FFF1FEE51FE4F8591949146
:1011E0009093E5038093E4031092EE031092F003D2
:1011F0001092EF031092ED031092EC031092EB03A8
:101200001092EA031092E9031092E8031092E703A8
:101210001092E6031092E2031092E1031092CD03C4
:1012200083EE93E09093D6038093D5031092D3037B
:101230001092D4031092CC0389E08093CF0381E015
:101240008093D0038093D1038093D203DF91CF9119
:101250000895CF93DF93CDB7DEB763970FB6F894B9
:10126000DEBF0FBECDBF789484B5826084BD84B5E7
:10127000816084BD85B5826085BD85B5816085BD91
:1012800080916E00816080936E0010928100809149
:1012900081008260809381008091810081608093D1
:1012A0008100809180008160809380008091B100F6
:1012B00084608093B1008091B00081608093B00021
:1012C0008091910082608093910080919100816073
:1012D0008093910080919000816080939000809134
:1012E000A10082608093A1008091A1008160809321
:1012F000A1008091A00081608093A00080912101D5
:10130000826080932101809121018160809321017D
:101310008091200181608093200180917A00846017
:1013200080937A0080917A00826080937A00809125
:101330007A00816080937A0080917A00806880933F
:101340007A001092C100E0913F03F091400382E0E7
:101350008083E0913B03F0913C031082E0913D03D8
:10136000F0913E038FEC808310924703E09143039A
:10137000F091440386E08083E0914103F0914203C1
:10138000808180618083E0914103F09142038081FC
:1013900088608083E0914103F091420380818068FE
:1013A0008083E0914103F091420380818F7D8083AF
:1013B000E091D503F091D603138615861486128624
:1013C000118610861782168215821482138210925B
:1013D000D3031092D40311E0BE01665F7F4F80916A
:1013E000D5039091D6030E94BD05882309F475C0EA
:1013F00067E0CE010A960E949C0399898913ECCF7D
:101400008091D3038F5F8093D3038A85883231F034
:1014100008F049C0803111F08232F1F68091D40396
:101420008F5F8093D4038091CC03811128C0809179
:10143000D5039091D6030E945904BE01665F7F4F89
:101440008091D5039091D6030E943A0440E064EB6A
:101450008091D5039091D6030E9406048091D50314
:101460009091D6030E94B303082F8091D5039091E9
:10147000D6030E945904011102C01093CC038A853F
:101480008031E1F0BE016F5F7F4FCE010A960E946E
:101490009104882331F08D818F33D9F058F48F3146
:1014A000D1F080E00EC08B3309F4B8CF823409F05C
:1014B00093CFB4CF8F3521F08F3799F78CE001C0EF
:1014C0008BE09091CF03981708F086CF8093CF03DD
:1014D00083CF8AE0F6CF89E0F4CF20E1C22E22E06C
:1014E000D22E30E0A32E32E0B32E48E1842E42E02B
:1014F000942E0EE912E0F12CE12C2FEFE21AF20A01
:10150000F801F182E082F601819191916F01F80179
:1015100093838283F401219131914F01F801358346
:101520002483F50141915191619171915F01F8011D
:101530004287538764877587178216829C013327F9
:10154000F901EE5BFD4F4491F901E450FE4FE49147
:10155000EE23A1F02E2F30E0220F331FF901E853C4
:10156000FE4FA591B491F901E255FE4F25913491BA
:101570002FB7F894EC914E2B4C932FBF60E00E9454
:1015800078010E5D1F4FF4E0EF16F10409F0B5CFBE
:1015900087E492E00E94E60628E132E03B8B2A8B4A
:1015A0000EE912E0312C212C0E944E05CE0101964D
:1015B0000E943D0681116FC160E070E08EEF92ECF9
:1015C000F801628F738F848F958F0E944E05CE0134
:1015D00001960E943D06811174C18AE9C82E89E9ED
:1015E000D82E84E4E82E83ECF82EF801C68ED78E30
:1015F000E0A2F1A282849384A484B58427E333E932
:1016000045E25CE3C701B6010E94BF0E9B01AC013D
:101610006DE17AE585E891EC0E94F50C2B013C0127
:10162000A7019601C701B6010E94BF0E21EF36EB5C
:1016300048E95AE30E94BF0E9B01AC01C301B2010D
:101640000E94F60C2B013C0126EB33E841E35EE3FC
:10165000C701B6010E94BF0EA50194010E94BF0EF2
:101660009B01AC01C301B2010E94F60C6B017C012D
:1016700024EF33EC47E850E4C501B4010E94BF0EEB
:101680009B01AC01C701B6010E94F60C6B017C0105
:10169000A5019401C501B4010E94BF0E26E231E20A
:1016A0004CE85DE30E94BF0E9B01AC01C701B6018F
:1016B0000E94F50CF801628B738B848B958BEA8901
:1016C000FB8980813296FB8BEA8B863308F0865348
:1016D00020917B00982F9870277F922B90937B000E
:1016E0008770806480937C0080917A00806480930E
:1016F0007A0080917A0086FDFCCF909178008091ED
:10170000790089279827892786569109FEE1F89F55
:10171000B001F99F700D1124072E000C880B990B56
:101720000E940A0E20E030E04DE454E40E94670D70
:101730006B017C01F801C68AD78AE08EF18E82881F
:101740009388A488B588A50194010E94670D9B0128
:10175000AC01F80162857385848595850E94BF0E72
:10176000F80166877787808B918BA7019601C50169
:10177000B4010E94620DF80187FFC1C0F28061E0F0
:101780008F2D0E94780164E670E080E090E00E9476
:10179000290260E08F2D0E9478010E945C0230E0F7
:1017A00020E0F8013187208789E492E00E94F40666
:1017B000FFEF2F1A3F0AC1010E94B6068EE592E0A4
:1017C0000E94F40687E492E00E94F4068BE492E023
:1017D0000E94F406F801628973898489958942E040
:1017E0000E94F60688E992E00E94F4068AE592E0FB
:1017F0000E94F406F80166897789808D918D42E018
:101800000E94F60688E992E00E94F40682E692E0E1
:101810000E94F406F801628573858485958542E00F
:101820000E94F60688E992E00E94F40681E792E0C1
:101830000E94F406F801668577858089918942E0E7
:101840000E94F60688E992E00E94F4068AE792E098
:101850000E94F406F801628D738D848D958D42E0AF
:101860000E94F60688E992E00E94F40683E892E07E
:101870000E94F406F801808591850E94B606F4E086
:101880002F16310409F44EC087E992E00E94E60663
:101890000E5D1F4F89CECE0101960E94030581384F
:1018A00034EE93070CF488CEBC01990F880B990B8A
:1018B0000E940A0E20E030E040E05CE30E94BF0E90
:1018C0007FCECE0101960E9403058138F4EE9F077A
:1018D0000CF483CEBC01990F880B990B0E940A0E61
:1018E00026E636E646E65CE30E94BF0E20E030E0E6
:1018F00040E052E40E94F60C6B017C0176CEC6807B
:10190000D7800E945C020D2C000CEE08FF086C19B9
:101910007D098E099F0920E63AEE40E050E00E94E2
:10192000B70C3FCF8BE992E00E94E6068BE992E08C
:101930000E94E60668E873E180E090E00E942902D8
:101940000E946B0325CE97FB072E16F4009407D058
:1019500077FD09D00E94E10C07FC05D03EF490957C
:1019600081959F4F0895709561957F4F0895A1E2ED
:101970001A2EAA1BBB1BFD010DC0AA1FBB1FEE1F09
:10198000FF1FA217B307E407F50720F0A21BB30B54
:10199000E40BF50B661F771F881F991F1A9469F7D0
:1019A00060957095809590959B01AC01BD01CF012C
:1019B0000895EE0FFF1F881F8BBF0790F691E02D53
:1019C0001994AA1BBB1B51E107C0AA1FBB1FA61776
:1019D000B70710F0A61BB70B881F991F5A95A9F7D8
:1019E00080959095BC01CD0108955058BB27AA273A
:1019F0000E940D0D0C94800E0E94720E38F00E9411
:101A0000790E20F039F49F3F19F426F40C946F0EF0
:101A10000EF4E095E7FB0C94690EE92F0E94910EFD
:101A200058F3BA17620773078407950720F079F413
:101A3000A6F50C94B30E0EF4E0950B2EBA2FA02D44
:101A40000B01B90190010C01CA01A0011124FF276B
:101A5000591B99F0593F50F4503E68F11A16F04066
:101A6000A22F232F342F4427585FF3CF4695379565
:101A70002795A795F0405395C9F77EF41F16BA0B2A
:101A8000620B730B840BBAF09150A1F0FF0FBB1FD8
:101A9000661F771F881FC2F70EC0BA0F621F731F21
:101AA000841F48F4879577956795B795F7959E3F7E
:101AB00008F0B0CF9395880F08F09927EE0F97950F
:101AC000879508950E94450E08F481E008950E94CC
:101AD0007B0D0C94800E0E94790E58F00E94720EBD
:101AE00040F029F45F3F29F00C94690E51110C94D9
:101AF000B40E0C946F0E0E94910E68F39923B1F30B
:101B0000552391F3951B550BBB27AA276217730723
:101B1000840738F09F5F5F4F220F331F441FAA1FB7
:101B2000A9F335D00E2E3AF0E0E832D09150504073
:101B3000E695001CCAF72BD0FE2F29D0660F771F21
:101B4000881FBB1F261737074807AB07B0E809F007
:101B5000BB0B802DBF01FF2793585F4F3AF09E3F8C
:101B6000510578F00C94690E0C94B40E5F3FE4F3C9
:101B7000983ED4F3869577956795B795F7959F5FCF
:101B8000C9F7880F911D9695879597F90895E1E01B
:101B9000660F771F881FBB1F621773078407BA077A
:101BA00020F0621B730B840BBA0BEE1F88F7E095D5
:101BB00008950E94990E88F09F5798F0B92F9927A1
:101BC000B751B0F0E1F0660F771F881F991F1AF028
:101BD000BA95C9F714C0B13091F00E94B30EB1E0CC
:101BE00008950C94B30E672F782F8827B85F39F0CB
:101BF000B93FCCF3869577956795B395D9F73EF4C1
:101C000090958095709561957F4F8F4F9F4F089568
:101C1000E89409C097FB3EF4909580957095619586
:101C20007F4F8F4F9F4F9923A9F0F92F96E9BB273C
:101C30009395F695879577956795B795F111F8CFB8
:101C4000FAF4BB0F11F460FF1BC06F5F7F4F8F4F23
:101C50009F4F16C0882311F096E911C0772321F019
:101C60009EE8872F762F05C0662371F096E8862FB1
:101C700070E060E02AF09A95660F771F881FDAF708
:101C8000880F9695879597F90895990F0008550F35
:101C9000AA0BE0E8FEEF16161706E807F907C0F0F2
:101CA00012161306E407F50798F0621B730B840BFA
:101CB000950B39F40A2661F0232B242B252B21F4D4
:101CC00008950A2609F4A140A6958FEF811D811D74
:101CD000089597F99F6780E870E060E008959FEFAE
:101CE00080EC089500240A941616170618060906B3
:101CF000089500240A941216130614060506089582
:101D0000092E0394000C11F4882352F0BB0F40F409
:101D1000BF2B11F460FF04C06F5F7F4F8F4F9F4F49
:101D2000089557FD9058440F551F59F05F3F71F0CB
:101D30004795880F97FB991F61F09F3F79F0879532
:101D40000895121613061406551FF2CF4695F1DFBB
:101D500008C0161617061806991FF1CF869571054B
:101D6000610508940895E894BB2766277727CB017F
:101D700097F908950E94450E08F48FEF08950E9488
:101D8000D20E0C94800E0E94720E38F00E94790ED2
:101D900020F0952311F00C94690E0C946F0E112411
:101DA0000C94B40E0E94910E70F3959FC1F3950FA1
:101DB00050E0551F629FF001729FBB27F00DB11DCF
:101DC000639FAA27F00DB11DAA1F649F6627B00D5F
:101DD000A11D661F829F2227B00DA11D621F739F48
:101DE000B00DA11D621F839FA00D611D221F749F56
:101DF0003327A00D611D231F849F600D211D822F9D
:101E0000762F6A2F11249F5750409AF0F1F08823C3
:101E10004AF0EE0FFF1FBB1F661F771F881F9150F0
:101E20005040A9F79E3F510580F00C94690E0C9428
:101E3000B40E5F3FE4F3983ED4F3869577956795AB
:101E4000B795F795E7959F5FC1F7FE2B880F911D1A
:101E50009695879597F908950E94450E880B990BE2
:061E60000895F894FFCF85
:101E660000000040000020400000404000006040AC
:101E76000700060005000400000001000200030040
:101E86005E00BC00770100000000FE0268029502B9
:101E96004B03C602A402B8020D0A006E616E006909
:101EA6006E66006F7666007B0022002270736920E2
:101EB600746172676574223A200022707369223A4F
:101EC600200022766F6C20746172676574223A2056
:101ED6000022766F6C73223A20002274656D7022A0
:101EE6003A20002274696D652073696E63652076F9
:0E1EF600656E74223A20007D2C20007D0000D5
:00000001FF
